:020000040800F2
:10000000005000202D0B00086D090008750900083C
:100010007D090008850900088D090008000000001E
:10002000000000000000000000000000B1540008C3
:10003000950900080000000091560008CD2D000829
:10004000750B0008750B0008750B0008750B000890
:10005000750B0008750B0008750B0008750B000880
:10006000750B0008750B0008750B0008750B000870
:10007000750B0008750B0008750B0008750B000860
:10008000750B0008750B0008750B0008750B000850
:10009000A1090008750B0008750B0008750B000816
:1000A000750B0008B5090008750B0008750B0008F2
:1000B000750B0008750B0008750B0008750B000820
:1000C000750B0008750B0008750B0008750B000810
:1000D000750B0008750B0008750B0008750B000800
:1000E000750B0008750B0008750B00080000000078
:1000F0000000000000000000000000000000000000
:0C01000000000000000000005FF808F1A3
:1001100010B5054C237833B9044B13B10448AFF341
:1001200000800123237010BD640000200000000047
:10013000E465000808B5034B1BB103490348AFF35E
:10014000008008BD0000000068000020E465000891
:10015000034613F8012B002AFBD1181A0138704707
:1001600080B500AF174B184A1A60164B09225A6027
:10017000144B00229A60134B0022DA60114B4FF4AB
:10018000A0221A610F4B00225A610E4B00221A76F0
:100190000C4B00225A760B4B00229A76094B002218
:1001A000DA76084B00221A77064B00225A77054868
:1001B00000F038FD0346002B01D000F01DFB00BF0E
:1001C00080BD00BF800000200064004080B588B082
:1001D00000AF786007F1100300221A605A609A603D
:1001E000DA607B681B68214A93423BD1204BDB6974
:1001F0001F4A43F00073D3611D4BDB6903F00073AA
:10020000FB60FB681A4B9B69194A43F00403936136
:10021000174B9B6903F00403BB60BB684FF400639A
:100220003B6100237B610023BB6107F1100319468A
:10023000104801F049FB4FF480533B6102237B617E
:100240000323FB610023BB6107F110031946094832
:1002500001F03AFB00220621142001F00AFB1420D1
:1002600001F023FB00BF2037BD4680BD0064004085
:10027000001002400008014080B500AF104A0C2178
:100280000A2002F097FE03460E4A13600E4A4021F0
:10029000142002F08FFE03460C4A13600C4A002122
:1002A0000C4802F0F5FD03460B4A13600B4A00218F
:1002B0000B4802F0EDFD03460A4A136000BF80BD03
:1002C000E4670008A8000020FC670008AC000020DC
:1002D0009C670008E9020008B0000020C067000821
:1002E000B9030008B4000020F0B5A1B008AFF86071
:1002F0006423182229492A4802F06AFB294B18680E
:1003000007F150014FF0FF33002202F027FFF8659C
:10031000FB6D002BF2D164230B222349204802F00D
:1003200057FB3A6D97F854309C4697F8553097F83C
:10033000561097F85700044697F85800054697F866
:100340005900064697F85A00B86097F85B00786045
:1003500007F11000D7F804E0CDF818E0D7F808E06E
:10036000CDF814E00496039502940191009363463E
:100370000E4905F021FC0E4B186807F1100100230F
:10038000002202F08BFEF865FB6D002BB6D06423D3
:1003900012220849024802F01BFBAFE74066000842
:1003A00004010020A80000205C66000868660008C0
:1003B000AC000020A466000880B594B000AF78605F
:1003C000642319220F49104802F002FB0F4B1868F2
:1003D00007F10C014FF0FF33002202F0BFFEF8647A
:1003E000FB6C002BF2D107F10C031846FFF7B0FEAF
:1003F00003469AB207F10C016423034802F0E8FABD
:10040000E4E700BFB866000804010020AC0000204B
:1004100080B588B000AF07F1100300221A605A605F
:100420009A60DA602D4B9B692C4A43F0100393616C
:100430002A4B9B6903F01003FB60FB68274B9B6909
:10044000264A43F020039361244B9B6903F0200369
:10045000BB60BB68214B9B69204A43F00403936156
:100460001E4B9B6903F004037B607B6800224FF402
:1004700000511B4801F0ACFB4FF400533B610123DA
:100480007B610023BB610223FB6107F11003194666
:10049000134801F019FA4FF400633B6102237B61BA
:1004A0000323FB610023BB6107F1100319460D48CC
:1004B00001F00AFA4FF480533B6102237B6103236E
:1004C000FB610023BB6107F110031946054801F0E9
:1004D000FBF900BF2037BD4680BD00BF00100240C1
:1004E0000010014000080140B0B59AB000AF00F024
:1004F00043FB00F0DFF8FFF78BFF00F0A1FAFFF7F6
:100500002FFE642307225E495E4802F061FA002351
:100510003B6501237B650023BB654FF40053FB6300
:1005200000233B644FF6FF737B644FF6FF73BB649D
:100530000023FB640123FB6507F13C031946524885
:1005400000F06BFC0346002B07D064230E224F49BA
:100550004C4802F03DFA00F04FF9642312224C4956
:10056000484802F035FA002387F86730012387F8FE
:1005700066301CE0444800F019FD034687F86630F9
:1005800097F86630002B12D097F86730013387F860
:100590006730642309223F493A4802F019FA64207F
:1005A00000F01CFBFFF7DCFD322000F017FB97F892
:1005B0006730042B03D897F86630002BDAD197F810
:1005C0006630002B08D064230D2233492D4802F0F9
:1005D000FFF900F011F905E064230A222F492948A8
:1005E00002F0F6F907F12C0300221A605A609A60B3
:1005F000DA602B4B9B692A4A43F004039361284B32
:100600009B6903F004037B607B684FF40063FB622B
:1006100000233B6300237B6307F12C031946214829
:1006200001F052F90221184800F025FE0346002B84
:1006300007D064230D221C49124802F0C9F900F0CA
:10064000DBF864230F2219490E4802F0C1F9184B58
:1006500007F108041D460FCD0FC40FCD0FC42B6842
:10066000237007F1080164232022064802F0B0F944
:1006700002F0C6FBFFF700FE02F0E4FB00BFFDE75F
:10068000D46600080401002080000020DC66000819
:10069000EC660008006700080C6700081C6700088B
:1006A0000010024000080140286700083867000871
:1006B0004867000880B590B000AF07F11803282202
:1006C0000021184605F09AFA3B1D00221A605A6074
:1006D0009A60DA601A610123BB614FF48033FB61D9
:1006E00000233B620123BB6202237B634FF4803310
:1006F000BB634FF4E013FB6307F11803184601F0E6
:1007000099FA0346002B01D000F076F80F237B60A6
:100710000223BB600023FB604FF480633B61002336
:100720007B613B1D0221184601F006FD0346002BAC
:1007300001D000F061F800BF4037BD4680BD000029
:1007400080B590B000AF78604FF400511C4801F0C4
:1007500057FA07F1180307F120020021786800F02A
:1007600069FC3B6AFB600023FB630DE007F11802A4
:10077000FB6B1344197807F11002FB6B13440A4614
:100780001A70FB6B0133FB63FB6B072BEEDD0D4B2C
:10079000186807F10C010023002202F07FFC0A4BCD
:1007A0001B78002B08D0084B00221A7064231522F6
:1007B0000649074802F00CF900BF4037BD4680BD2E
:1007C00000100140A8000020000000206C67000815
:1007D0000401002080B582B000AF78607B681B68A0
:1007E000044A934201D100F0DDF900BF0837BD464D
:1007F00080BD00BF002C014080B500AF72B600BFC5
:100800004FF40051034801F0FBF9C82000F0E6F96D
:1008100000BFF5E70010014080B584B000AF184B71
:100820009B69174A43F001039361154B9B6903F0E1
:100830000103BB60BB68124BDB69114A43F0805374
:10084000D3610F4BDB6903F080537B607B68002230
:100850000F216FF0010001F00CF80A4B5B68FB60A0
:10086000FB6823F0E063FB60FB6843F00073FB6010
:10087000044AFB68536000BF1037BD4680BD00BF0F
:10088000001002400000014080B58CB000AF7860DD
:100890000023BB6200237B62002387F82F302E4B9E
:1008A0009B692D4A43F4006393612B4B9B6903F4CE
:1008B0000063BB60BB6807F10C0207F1100311462F
:1008C000184601F0A9FD01F093FDB862BB6A234A06
:1008D000A2FB03239B0C013B7B62214B214A1A6044
:1008E0001F4B40F2E732DA601D4A7B6A53601C4BB3
:1008F00000221A611A4B00229A60194B00229A6159
:10090000174801F0D7FD034687F82F3097F82F30AE
:10091000002B1BD1124801F025FE034687F82F302B
:1009200097F82F30002B11D1192000F0BEFF7B6803
:100930000F2B08D800227968192000F09AFF0A4A84
:100940007B68136002E0012387F82F3097F82F307F
:1009500018463037BD4680BD0010024083DE1B4381
:10096000B8000020002C01400800002080B400AF37
:1009700000BFFDE780B400AF00BFFDE780B400AF6B
:1009800000BFFDE780B400AF00BFFDE780B400AF5B
:1009900000BFFDE780B400AF00BFBD4680BC70471C
:1009A00080B500AF024800F08BFC00BF80BD00BFE7
:1009B0008000002080B500AF024801F025FE00BF96
:1009C00080BD00BFB800002080B586B000AF786061
:1009D000144A154BD31A7B617B693B61134B1B682F
:1009E000002B02D1114B124A1A60104B1A687B6817
:1009F00013443A699A4207D205F066F903460C227D
:100A00001A604FF0FF3309E0084B1B68FB60074B8F
:100A10001A687B681344054A1360FB681846183748
:100A2000BD4680BD005000200004000000010020F1
:100A30008030002080B400AF00BFBD4680BC70474E
:100A400080B500AF114B124A1A60104B4FF4E132DF
:100A50005A600E4B00229A600C4B0022DA600B4B5E
:100A600000221A61094B0C225A61084B00229A613C
:100A7000064B0022DA61054801F05AFF0346002BBD
:100A800001D0FFF7B9FE00BF80BD00BF0401002008
:100A90000038014080B588B000AF786007F11003DE
:100AA00000221A605A609A60DA607B681B681C4AF0
:100AB000934231D11B4B9B691A4A43F480439361A3
:100AC000184B9B6903F48043FB60FB68154B9B69E3
:100AD000144A43F004039361124B9B6903F004032F
:100AE000BB60BB684FF400733B6102237B6103234F
:100AF000FB6107F1100319460B4800F0E5FE4FF4C7
:100B000080633B6100237B610023BB6107F110031D
:100B10001946054800F0D8FE00BF2037BD4680BD0D
:100B2000003801400010024000080140FFF782FF3A
:100B30000B480C490C4A002302E0D458C45004333B
:100B4000C4188C42F9D3094A094C002301E0136010
:100B50000432A242FBD305F0BDF8FFF7C5FC704795
:100B60000000002064000020846800086400002069
:100B700080300020FEE7000080B500AF084B1B6806
:100B8000074A43F010031360032000F067FE0F20B4
:100B9000FFF77AFEFFF740FE0023184680BD00BF36
:100BA0000020024080B400AF054B1B781A46054B6D
:100BB0001B681344034A136000BFBD4680BC7047E6
:100BC0000C0000204C01002080B400AF024B1B68D9
:100BD0001846BD4680BC70474C01002080B584B0EB
:100BE00000AF7860FFF7F0FFB8607B68FB60FB68E0
:100BF000B3F1FF3F05D00A4B1B781A46FB6813443C
:100C0000FB6000BFFFF7E0FF0246BB68D31AFA683B
:100C10009A42F7D800BF00BF1037BD4680BD00BF65
:100C20000C00002080B584B000AF78607B68002B9A
:100C300001D10123EDE07B6893F82030DBB2002B7B
:100C400002D17868FFF7C2FA7B681B681A687B6874
:100C50001B6842F001021A60FFF7B6FFF86012E06D
:100C6000FFF7B2FF0246FB68D31A0A2B0BD97B6849
:100C70005B6A43F400327B685A627B68052283F822
:100C800020200123C5E07B681B685B6803F001033B
:100C9000002BE5D07B681B681A687B681B6822F014
:100CA00002021A60FFF790FFF86012E0FFF78CFF76
:100CB0000246FB68D31A0A2B0BD97B685B6A43F4A4
:100CC00000327B685A627B68052283F8202001236A
:100CD0009FE07B681B685B6803F00203002BE5D193
:100CE0007B681B7E012B08D17B681B681A687B68B8
:100CF0001B6842F080021A6007E07B681B681A6874
:100D00007B681B6822F080021A607B685B7E012B87
:100D100008D17B681B681A687B681B6842F0400238
:100D20001A6007E07B681B681A687B681B6822F002
:100D300040021A607B689B7E012B08D17B681B6890
:100D40001A687B681B6842F020021A6007E07B6823
:100D50001B681A687B681B6822F020021A607B6897
:100D6000DB7E012B08D17B681B681A687B681B68D7
:100D700022F010021A6007E07B681B681A687B6823
:100D80001B6842F010021A607B681B7F012B08D1A0
:100D90007B681B681A687B681B6842F008021A604F
:100DA00007E07B681B681A687B681B6822F00802F2
:100DB0001A607B685B7F012B08D17B681B681A680F
:100DC0007B681B6842F004021A6007E07B681B68BE
:100DD0001A687B681B6822F004021A607B689A68B4
:100DE0007B68DB681A437B681B691A437B685B6915
:100DF00042EA03017B685B685A1E7B681B680A43F2
:100E0000DA617B6800225A627B68012283F8202025
:100E1000002318461037BD4680BD80B487B000AFB0
:100E2000786039607B681B687B617B6893F8203051
:100E3000FB74FB7C012B03D0FB7C022B40F0AA80CF
:100E40007B69D3F8003243F001027B69C3F80022CA
:100E50003B685B6903F01F03012202FA03F3FB60A6
:100E60007B69D3F81C22FB68DB431A407B69C3F81B
:100E70001C223B68DB69002B23D17B69D3F80C2251
:100E8000FB68DB431A407B69C3F80C223B68DB68D4
:100E900019043B685B689BB23A68526919437B69E5
:100EA000483243F832103B689B6819043B681B6862
:100EB0009AB23B685B690A4379694833DB000B44AB
:100EC0005A603B68DB69012B22D17B69D3F80C2285
:100ED000FB681A437B69C3F80C223B681B68190442
:100EE0003B685B689BB23A68526919437B69483238
:100EF00043F832103B689B6819043B68DB689AB280
:100F00003B685B690A4379694833DB000B445A60EC
:100F10003B689B69002B09D17B69D3F80422FB68ED
:100F2000DB431A407B69C3F8042207E07B69D3F8EE
:100F30000422FB681A437B69C3F804223B681B69DF
:100F4000002B09D17B69D3F81422FB68DB431A40DC
:100F50007B69C3F8142207E07B69D3F81422FB688D
:100F60001A437B69C3F814223B681B6A012B07D123
:100F70007B69D3F81C22FB681A437B69C3F81C22E7
:100F80007B69D3F8003223F001027B69C3F80022A9
:100F9000002306E07B685B6A43F480227B685A6228
:100FA000012318461C37BD4680BC704780B584B00D
:100FB00000AF78607B6893F82030DBB2012B2ED134
:100FC0007B68022283F820207B681B681A687B6894
:100FD0001B6822F001021A60FFF7F6FDF86012E0CC
:100FE000FFF7F2FD0246FB68D31A0A2B0BD97B6888
:100FF0005B6A43F400327B685A627B68052283F89F
:101000002020012312E07B681B685B6803F001036A
:10101000002BE5D17B6800225A62002306E07B6842
:101020005B6A43F400227B685A620123184610373A
:10103000BD4680BD80B487B000AFF860B9607A600B
:101040003B60FB6893F82030FB75FB7D012B03D0E0
:10105000FB7D022B40F00381BB68002B0ED1FB68A7
:101060001B68DB6803F00303002B16D1FB685B6A87
:1010700043F40012FB685A620123F7E0FB681B6827
:101080001B6903F00303002B07D1FB685B6A43F481
:101090000012FB685A620123E8E0FB681A68BB682B
:1010A0001B331B0113441B6803F004027B689A6026
:1010B0007B689B68002B0CD1FB681A68BB681B33EC
:1010C0001B0113441B685B0DC3F30A027B681A60A3
:1010D0000BE0FB681A68BB681B331B0113441B68D9
:1010E000DB0823F060427B685A60FB681A68BB68C3
:1010F0001B331B0113441B6803F002027B68DA6098
:10110000FB681A68BB681B331B01134404331B685C
:1011100003F00803002B03D07B6808221A610BE060
:10112000FB681A68BB681B331B01134404331B683C
:1011300003F00F027B681A61FB681A68BB681B33F7
:101140001B01134404331B681B0ADAB27B689A61E3
:10115000FB681A68BB681B331B01134404331B680C
:101160001B0C9AB27B685A61FB681A68BB681B014A
:10117000134403F5DC731B68DAB23B681A70FB6832
:101180001A68BB681B01134403F5DC731B681A0A59
:101190003B680133D2B21A70FB681A68BB681B0146
:1011A000134403F5DC731B681A0C3B680233D2B29C
:1011B0001A70FB681A68BB681B01134403F5DC73E3
:1011C0001B681A0E3B680333D2B21A70FB681A68A8
:1011D000BB681B01134403F5DE731A683B680433D4
:1011E000D2B21A70FB681A68BB681B01134403F57E
:1011F000DE731B681A0A3B680533D2B21A70FB68AB
:101200001A68BB681B01134403F5DE731B681A0CD4
:101210003B680633D2B21A70FB681A68BB681B01C0
:10122000134403F5DE731B681A0E3B680733D2B212
:101230001A70BB68002B08D1FB681B68DA68FB6872
:101240001B6842F02002DA6007E0FB681B681A693D
:10125000FB681B6842F020021A61002306E0FB686D
:101260005B6A43F48022FB685A62012318461C37EC
:10127000BD4680BC704780B485B000AF78603960EF
:101280007B6893F82030FB73FB7B012B02D0FB7B48
:10129000022B09D17B681B6859697B681B683A6817
:1012A0000A435A61002306E07B685B6A43F48022AC
:1012B0007B685A62012318461437BD4680BC7047CC
:1012C00080B58AB000AF786000237B627B681B68C2
:1012D0005B693B627B681B685B68FB617B681B68C2
:1012E0009B68BB617B681B68DB687B617B681B68F4
:1012F0001B693B617B681B689B69FB603B6A03F071
:101300000103002B7CD0BB6903F00103002B23D029
:101310007B681B6801229A60BB6903F00203002B03
:1013200003D0786800F083F916E0BB6903F004038A
:10133000002B04D07B6A43F400637B620CE0BB6942
:1013400003F00803002B04D07B6A43F480537B62D4
:1013500002E0786800F086F9BB6903F48073002B23
:1013600024D07B681B684FF480729A60BB6903F4D9
:101370000073002B03D0786800F062F916E0BB69B7
:1013800003F48063002B04D07B6A43F400537B6238
:101390000CE0BB6903F40063002B04D07B6A43F4C8
:1013A00080437B6202E0786800F065F9BB6903F472
:1013B0008033002B24D07B681B684FF480329A6006
:1013C000BB6903F40033002B03D0786800F041F9C7
:1013D00016E0BB6903F48023002B04D07B6A43F43E
:1013E00000437B620CE0BB6903F40023002B04D0B4
:1013F0007B6A43F480337B6202E0786800F044F952
:101400003B6A03F00803002B0CD07B6903F0100348
:10141000002B07D07B6A43F400737B627B681B68F8
:101420001022DA603B6A03F00403002B0BD07B69C7
:1014300003F00803002B06D07B681B680822DA60E3
:10144000786800F02AF93B6A03F00203002B09D008
:101450007B681B68DB6803F00303002B02D078680D
:10146000FFF76EF93B6A03F04003002B0CD03B6999
:1014700003F01003002B07D07B6A43F480637B6288
:101480007B681B6810221A613B6A03F02003002B63
:101490000BD03B6903F00803002B06D07B681B6868
:1014A00008221A61786800F00AF93B6A03F0100319
:1014B000002B09D07B681B681B6903F00303002B1A
:1014C00002D0786800F0F2F83B6A03F40033002B96
:1014D0000BD0FB6903F01003002B06D07B681B6860
:1014E00010225A60786800F0F3F83B6A03F4803306
:1014F000002B0BD0FB6903F00803002B06D07B68A0
:101500001B6808225A60786800F0EBF83B6A03F425
:101510000043002B7BD0FB6903F00403002B72D047
:101520003B6A03F48073002B08D0FB6803F00103CF
:10153000002B03D07B6A43F001037B623B6A03F418
:101540000073002B08D0FB6803F00203002B03D0CC
:101550007B6A43F002037B623B6A03F48063002BE7
:1015600008D0FB6803F00403002B03D07B6A43F030
:1015700004037B623B6A03F40063002B43D0FB68E7
:1015800003F07003002B3ED0FB6803F07003602B68
:101590002BD0602B2ED8502B22D0502B2AD8402B6A
:1015A00019D0402B26D8302B10D0302B22D8102B1E
:1015B00002D0202B05D01DE07B6A43F008037B623C
:1015C00019E07B6A43F010037B6214E07B6A43F00E
:1015D00020037B620FE07B6A43F040037B620AE0FA
:1015E0007B6A43F080037B6205E07B6A43F480738F
:1015F0007B6200E000BF7B681B689A697B681B68A0
:1016000022F070029A617B681B6804225A607B6A30
:10161000002B08D07B685A6A7B6A1A437B685A623F
:10162000786800F067F800BF2837BD4680BD80B4F9
:1016300083B000AF786000BF0C37BD4680BC7047F8
:1016400080B483B000AF786000BF0C37BD4680BC6B
:10165000704780B483B000AF786000BF0C37BD46E0
:1016600080BC704780B483B000AF786000BF0C3797
:10167000BD4680BC704780B483B000AF786000BFC7
:101680000C37BD4680BC704780B483B000AF786033
:1016900000BF0C37BD4680BC704780B483B000AF3C
:1016A000786000BF0C37BD4680BC704780B483B003
:1016B00000AF786000BF0C37BD4680BC704780B477
:1016C00083B000AF786000BF0C37BD4680BC704768
:1016D00080B483B000AF786000BF0C37BD4680BCDB
:1016E000704780B483B000AF786000BF0C37BD4650
:1016F00080BC704780B483B000AF786000BF0C3707
:10170000BD4680BC7047000080B485B000AF7860F3
:101710007B6803F00703FB600C4BDB68BB60BA68B7
:101720004FF6FF031340BB60FB681A02BB6813430C
:1017300043F0BF6343F40033BB60044ABB68D3602B
:1017400000BF1437BD4680BC704700BF00ED00E00D
:1017500080B400AF044BDB681B0A03F00703184694
:10176000BD4680BC704700BF00ED00E080B483B090
:1017700000AF0346FB7197F90730002B0BDBFB79B9
:1017800003F01F02064997F907305B09012000FAB0
:1017900002F241F8232000BF0C37BD4680BC7047E1
:1017A00000E100E080B483B000AF03463960FB7114
:1017B00097F90730002B0ADB3B68DAB20C4997F93E
:1017C00007301201D2B20B4483F800230AE03B68D1
:1017D000DAB20849FB7903F00F03043B1201D2B2DD
:1017E0000B441A7600BF0C37BD4680BC704700BF63
:1017F00000E100E000ED00E080B489B000AFF860E7
:10180000B9607A60FB6803F00703FB61FB69C3F111
:101810000703042B28BF0423BB61FB690433062B99
:1018200002D9FB69033B00E000237B614FF0FF32EC
:10183000BB6902FA03F3DA43BB681A407B699A403A
:101840004FF0FF317B6901FA03F3D9437B680B400A
:10185000134318462437BD4680BC704780B582B01C
:1018600000AF78607868FFF74FFF00BF0837BD46CC
:1018700080BD80B586B000AF0346B9607A60FB7367
:1018800000237B61FFF764FF78617A68B968786943
:10189000FFF7B2FF024697F90F3011461846FFF7DF
:1018A00081FF00BF1837BD4680BD80B582B000AF54
:1018B0000346FB7197F907301846FFF757FF00BF43
:1018C0000837BD4680BD000080B48BB000AF7860A3
:1018D000396000237B6200233B6269E101227B6A5D
:1018E00002FA03F3FB613B681B68FA691340BB61B2
:1018F000BA69FB699A4240F058813B685B689A4A32
:1019000093425ED0984A934275D8984A934258D0F1
:10191000964A93426FD8964A934252D0944A934241
:1019200069D8944A93424CD0924A934263D8924ADF
:10193000934246D0904A93425DD8122B2AD8122B5C
:1019400059D801A252F823F0C31900089D190008C4
:10195000AF190008F1190008F7190008F719000875
:10196000F7190008F7190008F7190008F719000817
:10197000F7190008F7190008F7190008F719000807
:10198000F7190008F7190008F7190008A519000849
:10199000B9190008794A934213D02CE03B68DB6800
:1019A0003B6229E03B68DB6804333B6224E03B6830
:1019B000DB6808333B621FE03B68DB680C333B624B
:1019C0001AE03B689B68002B02D104233B6213E0C2
:1019D0003B689B68012B05D108233B627B68FA6951
:1019E0001A6109E008233B627B68FA695A6103E0E7
:1019F00000233B6200E000BFBB69FF2B01D87B687E
:101A000001E07B6804337B61BB69FF2B02D87B6AF2
:101A10009B0002E07B6A083B9B003B617B691A6884
:101A20000F213B6901FA03F3DB431A40396A3B6932
:101A300001FA03F31A437B691A603B685B6803F0A1
:101A40008053002B00F0B1804D4B9B694C4A43F012
:101A5000010393614A4B9B6903F00103BB60BB68C0
:101A6000484A7B6A9B08023352F82330FB607B6A4A
:101A700003F003039B000F2202FA03F3DB43FA682F
:101A80001340FB607B68404A934213D07B683F4A17
:101A900093420DD07B683E4A934207D07B683D4A13
:101AA000934201D1032306E0042304E0022302E071
:101AB000012300E000237A6A02F0030292009340BF
:101AC000FA681343FB602F497B6A9B080233FA686C
:101AD00041F823203B685B6803F48013002B06D099
:101AE0002D4B9A682C49BB6913438B6006E02A4B47
:101AF0009A68BB69DB43284913408B603B685B688D
:101B000003F40013002B06D0234BDA682249BB698B
:101B10001343CB6006E0204BDA68BB69DB431E4908
:101B20001340CB603B685B6803F40033002B06D0A6
:101B3000194B5A681849BB6913434B6006E0164BB2
:101B40005A68BB69DB43144913404B603B685B68D0
:101B500003F48033002B21D00F4B1A680E49BB6968
:101B600013430B6021E000BF000032100000311071
:101B700000002210000021100000121000001110BF
:101B8000001002400000014000080140000C01402C
:101B90000010014000140140000401400B4B1A6882
:101BA000BB69DB43094913400B607B6A01337B62ED
:101BB0003B681A687B6A22FA03F3002B7FF48EAE2F
:101BC00000BF00BF2C37BD4680BC704700040140F9
:101BD00080B483B000AF78600B467B8013467B7087
:101BE0007B78002B03D07A887B681A6103E07B88BE
:101BF0001A047B681A6100BF0C37BD4680BC704771
:101C000080B485B000AF78600B467B807B68DB6872
:101C1000FB607A88FB6813401A04FB68D9437B8811
:101C20000B401A437B681A6100BF1437BD4680BC65
:101C30007047000080B586B000AF78607B68002BED
:101C400001D1012372E27B681B6803F00103002BC2
:101C500000F08780924B5B6803F00C03042B0CD0E0
:101C60008F4B5B6803F00C03082B12D18C4B5B6825
:101C700003F48033B3F5803F0BD1894B1B6803F429
:101C80000033002B6CD07B685B68002B68D101238C
:101C90004CE27B685B68B3F5803F06D1804B1B68E4
:101CA0007F4A43F4803313602EE07B685B68002B2F
:101CB0000CD17B4B1B687A4A23F480331360784B3A
:101CC0001B68774A23F4802313601DE07B685B6800
:101CD000B3F5A02F0CD1724B1B68714A43F48023DB
:101CE00013606F4B1B686E4A43F4803313600BE044
:101CF0006B4B1B686A4A23F480331360684B1B6884
:101D0000674A23F4802313607B685B68002B13D041
:101D1000FEF75AFF386108E0FEF756FF02463B69BE
:101D2000D31A642B01D9032300E25D4B1B6803F433
:101D30000033002BF0D014E0FEF746FF386108E0D6
:101D4000FEF742FF02463B69D31A642B01D90323F5
:101D5000ECE1534B1B6803F40033002BF0D100E09F
:101D600000BF7B681B6803F00203002B63D04C4B61
:101D70005B6803F00C03002B0BD0494B5B6803F04E
:101D80000C03082B1CD1464B5B6803F48033002BFB
:101D900016D1434B1B6803F00203002B05D07B6870
:101DA0001B69012B01D00123C0E13D4B1B6823F0CF
:101DB000F8027B685B69DB00394913430B603AE04A
:101DC0007B681B69002B20D0364B01221A60FEF77E
:101DD000FBFE386108E0FEF7F7FE02463B69D31AC6
:101DE000022B01D90323A1E12D4B1B6803F0020351
:101DF000002BF0D02A4B1B6823F0F8027B685B694C
:101E0000DB00274913430B6015E0264B00221A60C4
:101E1000FEF7DAFE386108E0FEF7D6FE02463B69BF
:101E2000D31A022B01D9032380E11D4B1B6803F059
:101E30000203002BF0D17B681B6803F00803002B22
:101E40003AD07B689B69002B19D0174B01221A608E
:101E5000FEF7BAFE386108E0FEF7B6FE02463B69BF
:101E6000D31A022B01D9032360E10D4B5B6A03F007
:101E70000203002BF0D0012000F0FEFA1CE00A4B18
:101E800000221A60FEF7A0FE38610FE0FEF79CFE0C
:101E900002463B69D31A022B08D9032346E100BF4F
:101EA000001002400000424280044242924B5B6AB2
:101EB00003F00203002BE9D17B681B6803F00403E5
:101EC000002B00F0A6800023FB758B4BDB6903F031
:101ED0008053002B0DD1884BDB69874A43F0805338
:101EE000D361854BDB6903F08053BB60BB68012382
:101EF000FB75824B1B6803F48073002B18D17F4B5A
:101F00001B687E4A43F480731360FEF75DFE386100
:101F100008E0FEF759FE02463B69D31A642B01D94B
:101F2000032303E1754B1B6803F48073002BF0D08F
:101F30007B68DB68012B06D16F4B1B6A6E4A43F04E
:101F4000010313622DE07B68DB68002B0CD16A4B28
:101F50001B6A694A23F001031362674B1B6A664AD6
:101F600023F0040313621CE07B68DB68052B0CD1B3
:101F7000614B1B6A604A43F0040313625E4B1B6AA9
:101F80005D4A43F0010313620BE05B4B1B6A5A4A44
:101F900023F001031362584B1B6A574A23F00403D2
:101FA00013627B68DB68002B15D0FEF70DFE3861ED
:101FB0000AE0FEF709FE02463B69D31A41F2883275
:101FC000934201D90323B1E04B4B1B6A03F0020398
:101FD000002BEED014E0FEF7F7FD38610AE0FEF7C3
:101FE000F3FD02463B69D31A41F28832934201D98C
:101FF00003239BE0404B1B6A03F00203002BEED14E
:10200000FB7D012B05D13C4BDB693B4A23F0805320
:10201000D3617B68DB69002B00F08780364B5B68FF
:1020200003F00C03082B61D07B68DB69022B46D1DF
:10203000334B00221A60FEF7C7FD386108E0FEF757
:10204000C3FD02463B69D31A022B01D903236DE07D
:10205000294B1B6803F00073002BF0D17B681B6ACF
:10206000B3F5803F08D1244B5B6823F400327B68D2
:102070009B68214913434B601F4B5B6823F4741228
:102080007B68196A7B685B6A0B431B4913434B608F
:102090001B4B01221A60FEF797FD386108E0FEF73E
:1020A00093FD02463B69D31A022B01D903233DE07D
:1020B000114B1B6803F00073002BF0D035E0104B80
:1020C00000221A60FEF780FD386108E0FEF77CFD13
:1020D00002463B69D31A022B01D9032326E0064BA3
:1020E0001B6803F00073002BF0D11EE07B68DB69F6
:1020F000012B07D1012319E00010024000700040BD
:10210000600042420B4B5B68FB60FB6803F480326B
:102110007B681B6A9A4206D1FB6803F470127B68E5
:102120005B6A9A4201D0012300E000231846183769
:10213000BD4680BD0010024080B584B000AF78601D
:1021400039607B68002B01D10123D0E06A4B1B680A
:1021500003F007033A689A4210D9674B1B6823F0D3
:10216000070265493B6813430B60634B1B6803F030
:1021700007033A689A4201D00123B8E07B681B68E4
:1021800003F00203002B20D07B681B6803F00403DC
:10219000002B05D0594B5B68584A43F4E063536009
:1021A0007B681B6803F00803002B05D0534B5B686A
:1021B000524A43F460535360504B5B6823F0F00283
:1021C0007B689B684D4913434B607B681B6803F039
:1021D0000103002B40D07B685B68012B07D1474B84
:1021E0001B6803F40033002B15D101237FE07B68CB
:1021F0005B68022B07D1414B1B6803F00073002B77
:1022000009D1012373E03D4B1B6803F00203002B4F
:1022100001D101236BE0394B5B6823F003027B683B
:102220005B68364913434B60FEF7CEFCF8600AE06A
:10223000FEF7CAFC0246FB68D31A41F28832934289
:1022400001D9032353E02D4B5B6803F00C027B683C
:102250005B689B009A42EBD1274B1B6803F0070396
:102260003A689A4210D2244B1B6823F00702224995
:102270003B6813430B60204B1B6803F007033A686D
:102280009A4201D0012332E07B681B6803F004030B
:10229000002B08D0194B5B6823F4E0627B68DB6895
:1022A000164913434B607B681B6803F00803002B3F
:1022B00009D0124B5B6823F460527B681B69DB001A
:1022C0000E4913434B6000F021F802460B4B5B684C
:1022D0001B0903F00F030A49CB5C22FA03F3094AF6
:1022E0001360094B1B681846FEF7CEFA0023184608
:1022F0001037BD4680BD00BF0020024000100240E4
:1023000014680008040000200800002080B487B092
:1023100000AF0023FB600023BB6000237B61002330
:102320007B6000233B611E4B5B68FB60FB6803F036
:102330000C03042B02D0082B03D027E0194B3B6180
:1023400027E0FB689B0C03F00F03174AD35C7B600C
:10235000FB6803F48033002B10D0114B5B685B0CDF
:1023600003F00103114AD35CBB607B680D4A03FB99
:1023700002F2BB68B2FBF3F37B6104E07B680C4ABA
:1023800002FB03F37B617B693B6102E0054B3B6130
:1023900000BF3B6918461C37BD4680BC704700BF74
:1023A0000010024000127A002C6800083C68000807
:1023B00000093D0080B400AF024B1B681846BD46C3
:1023C00080BC70470400002080B500AFFFF7F2FF2B
:1023D0000246054B5B681B0A03F007030349CB5C0D
:1023E00022FA03F3184680BD00100240246800085A
:1023F00080B500AFFFF7DEFF0246054B5B68DB0AE6
:1024000003F007030349CB5C22FA03F3184680BDAF
:10241000001002402468000880B483B000AF7860E8
:1024200039607B680F221A60114B5B6803F003026E
:102430007B685A600E4B5B6803F0F0027B689A6021
:102440000B4B5B6803F4E0627B68DA60084B5B6807
:10245000DB0803F4E0627B681A61064B1B6803F03B
:1024600007023B681A6000BF0C37BD4680BC70474E
:10247000001002400020024080B485B000AF7860B8
:102480000A4B1B680A4AA2FB03235B0A7A6802FB19
:1024900003F3FB6000BFFB685A1EFA60002BF9D102
:1024A00000BF00BF1437BD4680BC70470400002049
:1024B000D34D621080B582B000AF78607B68002B8E
:1024C00001D1012341E07B6893F83D30DBB2002B62
:1024D00006D17B68002283F83C20786800F039F848
:1024E0007B68022283F83D207B681A687B6804338E
:1024F0001946104600F09CF97B68012283F84620BB
:102500007B68012283F83E207B68012283F83F200C
:102510007B68012283F840207B68012283F84120F8
:102520007B68012283F842207B68012283F84320E4
:102530007B68012283F844207B68012283F84520D0
:102540007B68012283F83D20002318460837BD46EA
:1025500080BD80B483B000AF786000BF0C37BD464B
:1025600080BC704780B485B000AF78607B6893F81A
:102570003D30DBB2012B01D001233AE07B6802221F
:1025800083F83D207B681B68DA687B681B6842F033
:102590000102DA607B681B68184A93420ED07B68A0
:1025A0001B68B3F1804F09D07B681B68144A9342C3
:1025B00004D07B681B68134A934211D17B681B6867
:1025C0009B6803F00703FB60FB68062B10D07B6859
:1025D0001B681A687B681B6842F001021A6007E0FA
:1025E0007B681B681A687B681B6842F001021A60EE
:1025F000002318461437BD4680BC7047002C0140AC
:10260000000400400008004080B584B000AF78604E
:102610007B681B68DB68FB607B681B681B69BB60B1
:10262000BB6803F00203002B20D0FB6803F0020319
:10263000002B1BD07B681B686FF002021A617B685D
:1026400001221A777B681B689B6903F00303002B48
:1026500003D0786800F0D1F805E0786800F0C4F89D
:10266000786800F0D3F87B6800221A77BB6803F023
:102670000403002B20D0FB6803F00403002B1BD0C5
:102680007B681B686FF004021A617B6802221A776C
:102690007B681B689B6903F44073002B03D0786848
:1026A00000F0ABF805E0786800F09EF8786800F07C
:1026B000ADF87B6800221A77BB6803F00803002B93
:1026C00020D0FB6803F00803002B1BD07B681B683D
:1026D0006FF008021A617B6804221A777B681B6816
:1026E000DB6903F00303002B03D0786800F085F862
:1026F00005E0786800F078F8786800F087F87B6883
:1027000000221A77BB6803F01003002B20D0FB686F
:1027100003F01003002B1BD07B681B686FF01002C6
:102720001A617B6808221A777B681B68DB6903F4EF
:102730004073002B03D0786800F05FF805E07868FC
:1027400000F052F8786800F061F87B6800221A7790
:10275000BB6803F00103002B0CD0FB6803F00103FE
:10276000002B07D07B681B686FF001021A61786844
:10277000FEF730F8BB6803F08003002B0CD0FB6839
:1027800003F08003002B07D07B681B686FF080028A
:102790001A61786800F0C3F8BB6803F04003002BAF
:1027A0000CD0FB6803F04003002B07D07B681B684C
:1027B0006FF040021A61786800F031F8BB6803F0EE
:1027C0002003002B0CD0FB6803F02003002B07D064
:1027D0007B681B686FF020021A61786800F096F839
:1027E00000BF1037BD4680BD80B483B000AF7860B5
:1027F00000BF0C37BD4680BC704780B483B000AFCB
:10280000786000BF0C37BD4680BC704780B483B091
:1028100000AF786000BF0C37BD4680BC704780B405
:1028200083B000AF786000BF0C37BD4680BC7047F6
:1028300080B485B000AF786039607B681B68FB604E
:102840007B682F4A93420BD07B68B3F1804F07D04F
:102850007B682C4A934203D07B682B4A934208D171
:10286000FB6823F07003FB603B685B68FA68134306
:10287000FB607B68224A93420BD07B68B3F1804FA8
:1028800007D07B681F4A934203D07B681E4A93425D
:1028900008D1FB6823F44073FB603B68DB68FA688F
:1028A0001343FB60FB6823F080023B685B691343C2
:1028B000FB607B68FA681A603B689A687B68DA623A
:1028C0003B681A687B689A627B680D4A934203D121
:1028D0003B681A697B681A637B6801225A617B68CE
:1028E0001B6903F00103002B05D07B681B6923F0F3
:1028F00001027B681A6100BF1437BD4680BC704777
:10290000002C0140000400400008004080B483B067
:1029100000AF786000BF0C37BD4680BC704780B404
:1029200083B000AF786000BF0C37BD4680BC7047F5
:1029300080B582B000AF78607B68002B01D10123A5
:1029400042E07B6893F84130DBB2002B06D17B6814
:10295000002283F840207868FEF79CF87B682422E8
:1029600083F841207B681B68DA687B681B6822F467
:102970000052DA60786800F071F97B681B681A69A8
:102980007B681B6822F490421A617B681B685A6955
:102990007B681B6822F02A025A617B681B68DA6830
:1029A0007B681B6842F40052DA607B6800225A643C
:1029B0007B68202283F841207B68202283F8422014
:1029C0007B6800225A63002318460837BD4680BD45
:1029D00080B58AB002AFF860B9603B601346FB80F7
:1029E00000237B61FB6893F84130DBB2202B75D16B
:1029F000BB68002B02D0FB88002B01D101236EE0C5
:102A0000FB6800225A64FB68212283F84120FEF70C
:102A1000DBF87861FB68FA889A84FB68FA88DA84C4
:102A2000FB689B68B3F5805F08D1FB681B69002BCE
:102A300004D10023FB61BB68BB6103E0BB68FB61A1
:102A40000023BB612EE03B6800937B69002280215C
:102A5000F86800F048F80346002B05D0FB682022F8
:102A600083F8412003233AE0FB69002B0BD1BB69BB
:102A70001B881A46FB681B68C2F308025A60BB69D0
:102A80000233BB6107E0FB691A78FB681B685A6078
:102A9000FB690133FB61FB68DB8C9BB2013B9AB2A3
:102AA000FB68DA84FB68DB8C9BB2002BCBD13B68E4
:102AB00000937B6900224021F86800F014F8034677
:102AC000002B05D0FB68202283F84120032306E079
:102AD000FB68202283F84120002300E002231846EF
:102AE0002037BD4680BD80B586B000AFF860B960C4
:102AF0003B601346FB713BE03B6AB3F1FF3F37D0CD
:102B0000FEF762F802463B68D31A3A6A9A4202D349
:102B10003B6A002B01D103233AE0FB681B68DB68AA
:102B200003F00403002B23D0BB68802B20D0BB68AC
:102B3000402B1DD0FB681B681B6803F00803082BA3
:102B400016D100237B61FB681B681B687B61FB68F7
:102B50001B685B687B617B69F86800F01DF8FB68A7
:102B600008225A64FB68002283F8402001230FE00A
:102B7000FB681B681A68BB681340BA689A420CBFAE
:102B800001230023DBB21A46FB799A42B4D000231A
:102B900018461837BD4680BD80B495B000AF786048
:102BA0007B681B680C337B637B6B53E8003F3B63A4
:102BB0003B6B23F49073FB647B681B680C33FA6CEB
:102BC0003A64FB63F96B3A6C41E80023BB63BB6B6F
:102BD000002BE5D17B681B6814333B623B6A53E8EA
:102BE000003FFB61FB6923F00103BB647B681B684A
:102BF0001433BA6CFA62BB62B96AFA6A41E800231C
:102C00007B627B6A002BE5D17B681B6B012B19D1A2
:102C10007B681B680C33FB60FB6853E8003FBB60BC
:102C2000BB6823F010037B647B681B680C337A6CF1
:102C3000BA617B617969BA6941E800233B613B690C
:102C4000002BE5D17B68202283F842207B6800229C
:102C50001A6300BF5437BD4680BC704780B584B04E
:102C600000AF78607B681B681B6923F440517B6868
:102C7000DA687B681B680A431A617B689A687B681C
:102C80001B691A437B685B691343BB607B681B68E5
:102C9000DB6823F4B05323F00C037A681268B96838
:102CA0000B43D3607B681B685B6923F440717B68CE
:102CB0009A697B681B680A435A617B681B682C4AC7
:102CC000934203D1FFF794FBF86002E0FFF77CFB2F
:102CD000F860FA6813469B0013449A001A447B6814
:102CE0005B689B00B2FBF3F3224AA2FB03235B0960
:102CF0001901FA6813469B0013449A001A447B6832
:102D00005B689B00B2FBF3F21A4BA3FB02035B0967
:102D1000642000FB03F3D31A1B013233154AA2FBD4
:102D200003235B0903F0F0031944FA6813469B0080
:102D300013449A001A447B685B689B00B2FBF3F271
:102D40000C4BA3FB02035B09642000FB03F3D31AC3
:102D50001B013233074AA2FB03235B0903F00F0276
:102D60007B681B680A449A6000BF1037BD4680BD6F
:102D7000003801401F85EB5180B483B000AF03469B
:102D80003960FB7197F90730002B0ADB3B68DAB238
:102D90000C4997F907301201D2B20B4483F8002393
:102DA0000AE03B68DAB20849FB7903F00F03043B01
:102DB0001201D2B20B441A7600BF0C37BD4680BC5C
:102DC000704700BF00E100E000ED00E080B500AF1B
:102DD000054B1B6801F0D6FE0346012B01D002F023
:102DE0007BFC00BF80BD00BF10E000E080B500AFFD
:102DF00000216FF00400FFF7BFFF00BF80BD00009F
:102E000080B483B000AFEFF305833B603B68002BD9
:102E100003D06FF005037B600CE0094B1B68002BAF
:102E200005D1074B01221A6000237B6002E04FF0BE
:102E3000FF337B607B6818460C37BD4680BC70470B
:102E40005001002080B582B000AFEFF305833B60F6
:102E50003B68002B03D06FF005037B6010E00B4B49
:102E60001B68012B09D1FFF7C1FF084B02221A6032
:102E700001F028FA00237B6002E04FF0FF337B6013
:102E80007B6818460837BD4680BD00BF5001002052
:102E900080B58EB004AFF860B9607A6000233B6102
:102EA000EFF305837B617B69002B7ED1FB68002BF0
:102EB0007BD080233B621823FB6100237B624FF0B1
:102EC000FF33BB617B68002B45D07B681B68002B00
:102ED00002D07B681B687B627B689B69002B02D0F9
:102EE0007B689B69FB61FB69002B08D0FB69382B71
:102EF00005D87B685B6803F00103002B01D0002339
:102F000054E07B685B69002B03D07B685B699B089E
:102F10003B627B689B68002B0ED07B68DB68A72B2D
:102F20000AD97B681B69002B06D07B685B69002B84
:102F300002D00123BB6110E07B689B68002B0CD1A1
:102F40007B68DB68002B08D17B681B69002B04D1F0
:102F50000023BB6101E00023BB61BB69012B10D1E1
:102F60007B681B697A68926802920193FB690093FF
:102F7000BB683A6A796AF86800F0E6FF03463B618D
:102F800013E0BB69002B10D13B6A9AB207F1100322
:102F90000193FB690093BB68796AF86801F034F823
:102FA0000346012B01D000233B613B6918462837BB
:102FB000BD4680BD80B58AB002AFF860B9607A6066
:102FC0000023FB61EFF305833B613B69002B5FD17D
:102FD000FB68002B5CD0BB68002B59D04FF0FF334F
:102FE000BB617B68002B29D07B689B68002B12D0CB
:102FF0007B68DB684F2B0ED97B681B69002B0AD0DE
:103000007B685A69FB68B96801FB03F39A4202D3F3
:103010000123BB6114E07B689B68002B10D17B68A7
:10302000DB68002B0CD17B681B69002B08D17B6807
:103030005B69002B04D10023BB6101E00023BB616D
:10304000BB69012B0BD17B681A697B689B680021E7
:103050000091B968F86800F02BFAF86108E0BB69E4
:10306000002B05D10022B968F86800F09EFAF861DB
:10307000FB69002B0CD07B68002B03D07B681B689E
:103080007B6101E000237B617969F86900F000FF52
:10309000FB6918462037BD4680BD000080B588B06A
:1030A00000AFF860B9603B601346FB71FB68BB6121
:1030B0000023FB61EFF305837B617B69002B28D044
:1030C000BB69002B05D0BB68002B02D03B68002BEE
:1030D00003D06FF00303FB6138E000233B6107F18D
:1030E00010020023B968B86900F0C0FB0346012B49
:1030F00003D06FF00203FB6128E03B69002B25D071
:10310000154B4FF080521A60BFF34F8FBFF36F8F94
:103110001CE0BB69002B02D0BB68002B03D16FF011
:103120000303FB6112E000233A68B968B86900F054
:103130009BFA0346012B09D03B68002B03D06FF0AC
:103140000103FB6102E06FF00203FB61FB691846BB
:103150002037BD4680BD00BF04ED00E080B588B0DB
:1031600000AFF860B9607A603B60FB68BB61002328
:10317000FB61EFF305837B617B69002B28D0BB6982
:10318000002B05D0BB68002B02D03B68002B03D07E
:103190006FF00303FB6137E000233B6107F110038D
:1031A0001A46B968B86900F0E1FC0346012B03D068
:1031B0006FF00203FB6127E03B69002B24D0154B25
:1031C0004FF080521A60BFF34F8FBFF36F8F1BE039
:1031D000BB69002B02D0BB68002B03D16FF0030347
:1031E000FB6111E03A68B968B86900F0DDFB03469D
:1031F000012B09D03B68002B03D06FF00103FB616A
:1032000002E06FF00203FB61FB6918462037BD4600
:1032100080BD00BF04ED00E080B485B000AFF86071
:10322000B9607A60FB68064A1A60BB68054A1A6092
:103230007B6880221A6000BF1437BD4680BC70478F
:1032400054010020FC01002080B485B000AFF8607C
:10325000B9607A60FB68074A1A60BB68064A1A6060
:103260007B684FF480721A6000BF1437BD4680BC83
:10327000704700BFFC030020A404002080B483B08A
:1032800000AF78607B6803F108027B685A607B6856
:103290004FF0FF329A607B6803F108027B68DA60C6
:1032A0007B6803F108027B681A617B6800221A6060
:1032B00000BF0C37BD4680BC704780B483B000AF00
:1032C00078607B6800221A6100BF0C37BD4680BC65
:1032D000704780B485B000AF786039607B685B6808
:1032E000FB603B68FA685A60FB689A683B689A60C2
:1032F000FB689B683A685A60FB683A689A603B686A
:103300007A681A617B681B685A1C7B681A6000BF68
:103310001437BD4680BC704780B485B000AF78607C
:1033200039603B681B68BB60BB68B3F1FF3F03D1EA
:103330007B681B69FB600CE07B680833FB6002E084
:10334000FB685B68FB60FB685B681B68BA689A4255
:10335000F6D2FB685A683B685A603B685B683A681B
:103360009A603B68FA689A60FB683A685A603B6802
:103370007A681A617B681B685A1C7B681A6000BFF8
:103380001437BD4680BC704780B485B000AF78600C
:103390007B681B69FB607B685B687A6892689A60EF
:1033A0007B689B687A6852685A60FB685B687A68D9
:1033B0009A4203D17B689A68FB685A607B68002256
:1033C0001A61FB681B685A1EFB681A60FB681B6861
:1033D00018461437BD4680BC7047000080B584B0E5
:1033E00000AF786039607B68FB60FB68002B0BD115
:1033F0004FF0500383F31188BFF36F8FBFF34F8FEC
:10340000BB6000BF00BFFDE702F0E8F8FB681A6888
:10341000FB68DB6BF968096C01FB03F31A44FB687A
:103420009A60FB6800229A63FB681A68FB685A601E
:10343000FB681A68FB68DB6B013BF968096C01FBF0
:1034400003F31A44FB68DA60FB68FF2283F8442028
:10345000FB68FF2283F845203B68002B14D1FB68F2
:103460001B69002B1AD0FB681033184601F0C4F911
:103470000346002B12D00D4B4FF080521A60BFF361
:103480004F8FBFF36F8F09E0FB6810331846FFF7CB
:10349000F5FEFB6824331846FFF7F0FE02F0CEF885
:1034A000012318461037BD4680BD00BF04ED00E083
:1034B00080B58EB002AFF860B9607A603B60FB689F
:1034C000002B0BD14FF0500383F31188BFF36F8FA4
:1034D000BFF34F8FBB6200BF00BFFDE73B68002B0F
:1034E0000BD14FF0500383F31188BFF36F8FBFF3FD
:1034F0004F8F7B6200BF00BFFDE77B68002B02D0CF
:10350000BB68002B01D0012300E00023002B0BD16E
:103510004FF0500383F31188BFF36F8FBFF34F8FCA
:103520003B6200BF00BFFDE77B68002B02D1BB6898
:10353000002B01D1012300E00023002B0BD14FF021
:10354000500383F31188BFF36F8FBFF34F8FFB617D
:1035500000BF00BFFDE750237B617B69502B0BD080
:103560004FF0500383F31188BFF36F8FBFF34F8F7A
:10357000BB6100BF00BFFDE77B693B68FB62FB6A84
:10358000002B0DD0FB6A012283F8462097F83820E3
:10359000FB6A009313467A68B968F86800F040F84F
:1035A000FB6A18463037BD4680BD80B58AB002AF91
:1035B000F860B9601346FB71FB68002B0BD14FF02C
:1035C000500383F31188BFF36F8FBFF34F8F3B61BD
:1035D00000BF00BFFDE7FB68BA6802FB03F3FB61B5
:1035E000FB695033184602F0FBF8B861BB69002B49
:1035F00011D0BB697B617B6950337B61BB69002261
:1036000083F84620FA79BB69009313467A69B96852
:10361000F86800F005F8BB6918462037BD4680BD44
:1036200080B584B000AFF860B9607A60FB70BB68A9
:10363000002B03D1BB69BA691A6002E0BB697A68E2
:103640001A60BB69FA68DA63BB69BA681A64012157
:10365000B869FFF7C3FEBB69FA7883F84C2000BF56
:103660001037BD4680BD000080B58EB000AFF86059
:10367000B9607A603B6000237B63FB683B633B6B14
:10368000002B0BD14FF0500383F31188BFF36F8FE2
:10369000BFF34F8FBB6200BF00BFFDE7BB68002BCD
:1036A00003D13B6B1B6C002B01D1012300E00023F5
:1036B000002B0BD14FF0500383F31188BFF36F8FB2
:1036C000BFF34F8F7B6200BF00BFFDE73B68022B5B
:1036D00003D13B6BDB6B012B01D1012300E0002305
:1036E000002B0BD14FF0500383F31188BFF36F8F82
:1036F000BFF34F8F3B6200BF00BFFDE701F042FA0E
:103700000346002B02D17B68002B01D1012300E08E
:103710000023002B0BD14FF0500383F31188BFF32C
:103720006F8FBFF34F8FFB6100BF00BFFDE701F05C
:1037300055FF3B6B9A6B3B6BDB6B9A4202D33B684A
:10374000022B29D13A68B968386B00F091FAF86217
:103750003B6B5B6A002B10D03B6B2433184601F0A7
:103760004BF80346002B13D03F4B4FF080521A60AA
:10377000BFF34F8FBFF36F8F0AE0FB6A002B07D0B8
:10378000394B4FF080521A60BFF34F8FBFF36F8FEA
:1037900001F054FF012363E07B68002B03D101F0AB
:1037A0004DFF00235CE07B6B002B06D107F1140377
:1037B000184601F085F801237B6301F03FFF00F01C
:1037C000F1FD01F00BFF3B6B93F844305BB2B3F1BA
:1037D000FF3F03D13B6B002283F844203B6B93F8FF
:1037E00045305BB2B3F1FF3F03D13B6B002283F85E
:1037F000452001F023FF3A1D07F114031146184636
:1038000001F074F80346002B24D1386B00F028FB3C
:103810000346002B18D03B6B10337A6811461846CC
:1038200000F098FF386B00F0B3FA00F0C9FD0346D2
:10383000002B7FF47CAF0C4B4FF080521A60BFF32B
:103840004F8FBFF36F8F72E7386B00F0A1FA00F073
:10385000B7FD6CE7386B00F09BFA00F0B1FD002378
:1038600018463837BD4680BD04ED00E080B590B005
:1038700000AFF860B9607A603B60FB68BB63BB6B0C
:10388000002B0BD14FF0500383F31188BFF36F8FE0
:10389000BFF34F8FBB6200BF00BFFDE7BB68002BCB
:1038A00003D1BB6B1B6C002B01D1012300E0002373
:1038B000002B0BD14FF0500383F31188BFF36F8FB0
:1038C000BFF34F8F7B6200BF00BFFDE73B68022B59
:1038D00003D1BB6BDB6B012B01D1012300E0002383
:1038E000002B0BD14FF0500383F31188BFF36F8F80
:1038F000BFF34F8F3B6200BF00BFFDE701F030FF19
:10390000EFF311824FF0500383F31188BFF36F8FF1
:10391000BFF34F8FFA61BB61FB697B63BB6B9A6B33
:10392000BB6BDB6B9A4202D33B68022B2FD1BB6B84
:1039300093F8453087F83330BB6B9B6BFB623A687A
:10394000B968B86B00F094F997F93330B3F1FF3FE1
:1039500012D1BB6B5B6A002B16D0BB6B24331846AD
:1039600000F04AFF0346002B0ED07B68002B0BD0E3
:103970007B6801221A6007E097F833300133DBB22D
:103980005AB2BB6B83F845200123FB6301E000239F
:10399000FB637B6B7B617B6983F3118800BFFB6BEF
:1039A00018464037BD4680BD80B58CB000AFF8608A
:1039B000B9607A600023FB62FB68BB62BB6A002BC4
:1039C0000BD14FF0500383F31188BFF36F8FBFF318
:1039D0004F8F3B6200BF00BFFDE7BB68002B03D1E8
:1039E000BB6A1B6C002B01D1012300E00023002BDC
:1039F0000BD14FF0500383F31188BFF36F8FBFF3E8
:103A00004F8FFB6100BF00BFFDE701F0BBF803462D
:103A1000002B02D17B68002B01D1012300E00023A1
:103A2000002B0BD14FF0500383F31188BFF36F8F3E
:103A3000BFF34F8FBB6100BF00BFFDE701F0CEFDBC
:103A4000BB6A9B6B7B627B6A002B1FD0B968B86A2C
:103A500000F078F97B6A5A1EBB6A9A63BB6A1B69DD
:103A6000002B0FD0BB6A1033184600F0C5FE03468A
:103A7000002B07D03C4B4FF080521A60BFF34F8FA2
:103A8000BFF36F8F01F0DAFD012369E07B68002B43
:103A900003D101F0D3FD002362E0FB6A002B06D1C5
:103AA00007F11003184600F00BFF0123FB6201F041
:103AB000C5FD00F077FC01F091FDBB6A93F844303E
:103AC0005BB2B3F1FF3F03D1BB6A002283F844200D
:103AD000BB6A93F845305BB2B3F1FF3F03D1BB6AD9
:103AE000002283F8452001F0A9FD3A1D07F11003DB
:103AF0001146184600F0FAFE0346002B23D1B86A9F
:103B000000F098F90346002B17D0BB6A24337A687B
:103B10001146184600F01EFEB86A00F039F900F0B0
:103B20004FFC0346002B89D10F4B4FF080521A6097
:103B3000BFF34F8FBFF36F8F80E7B86A00F028F9AB
:103B400000F03EFC7AE7B86A00F022F900F038FC99
:103B5000B86A00F06FF90346002B3FF46FAF002303
:103B600018463037BD4680BD04ED00E080B58EB00C
:103B700000AFF860B9607A60FB683B633B6B002B79
:103B80000BD14FF0500383F31188BFF36F8FBFF356
:103B90004F8F3B6200BF00BFFDE7BB68002B03D126
:103BA0003B6B1B6C002B01D1012300E00023002B99
:103BB0000BD14FF0500383F31188BFF36F8FBFF326
:103BC0004F8FFB6100BF00BFFDE701F0C9FDEFF3C0
:103BD00011824FF0500383F31188BFF36F8FBFF34F
:103BE0004F8FBA617B61BB69FB623B6B9B6BBB62B6
:103BF000BB6A002B2FD03B6B93F8443087F82730FB
:103C0000B968386B00F09EF8BB6A5A1E3B6B9A632A
:103C100097F92730B3F1FF3F12D13B6B1B69002BA3
:103C200016D03B6B1033184600F0E6FD0346002B20
:103C30000ED07B68002B0BD07B6801221A6007E056
:103C400097F827300133DBB25AB23B6B83F844203C
:103C500001237B6301E000237B63FB6A3B613B69DB
:103C600083F3118800BF7B6B18463837BD4680BD93
:103C700080B586B000AFF860B9607A6000237B61E0
:103C8000FB689B6B3B61FB681B6C002B0DD1FB68D9
:103C90001B68002B4DD1FB689B68184600F090FF15
:103CA0007861FB6800229A6043E07B68002B19D1A1
:103CB000FB685868FB681B6C1A46B96802F030F85C
:103CC000FB685A68FB681B6C1A44FB685A60FB6807
:103CD0005A68FB689B689A422BD3FB681A68FB689A
:103CE0005A6026E0FB68D868FB681B6C1A46B96806
:103CF00002F016F8FB68DA68FB681B6C5B421A443A
:103D0000FB68DA60FB68DA68FB681B689A4207D2D6
:103D1000FB689A68FB681B6C5B421A44FB68DA60BC
:103D20007B68022B05D13B69002B02D03B69013B2C
:103D30003B613B695A1CFB689A637B6918461837DC
:103D4000BD4680BD80B582B000AF786039607B68C9
:103D50001B6C002B18D07B68DA687B681B6C1A44DC
:103D60007B68DA607B68DA687B689B689A4203D379
:103D70007B681A687B68DA607B68D9687B681B6C33
:103D80001A46386801F0CCFF00BF0837BD4680BD39
:103D900080B584B000AF786001F020FC7B6893F8B8
:103DA0004530FB7311E07B685B6A002B12D07B68A7
:103DB0002433184600F020FD0346002B01D000F00C
:103DC000F9FDFB7B013BDBB2FB7397F90F30002B56
:103DD000E9DC00E000BF7B68FF2283F8452001F0AA
:103DE0002DFC01F0FBFB7B6893F84430BB7311E0C2
:103DF0007B681B69002B12D07B681033184600F0DB
:103E0000FBFC0346002B01D000F0D4FDBB7B013B43
:103E1000DBB2BB7397F90E30002BE9DC00E000BF8A
:103E20007B68FF2283F8442001F008FC00BF1037B4
:103E3000BD4680BD80B584B000AF786001F0CEFB98
:103E40007B689B6B002B02D10123FB6001E0002308
:103E5000FB6001F0F3FBFB6818461037BD4680BDE0
:103E600080B584B000AF786001F0B8FB7B689A6BD6
:103E70007B68DB6B9A4202D10123FB6001E00023E7
:103E8000FB6001F0DBFBFB6818461037BD4680BDC8
:103E900080B485B000AF786039600023FB6014E027
:103EA0000E4AFB6852F83330002B0BD10B49FB68EC
:103EB0003A6841F83320094AFB68DB0013447A680A
:103EC0005A6006E0FB680133FB60FB68072BE7D90B
:103ED00000BF00BF1437BD4680BC7047A408002057
:103EE00080B586B000AFF860B9607A60FB687B612E
:103EF00001F074FB7B6993F844305BB2B3F1FF3F90
:103F000003D17B69002283F844207B6993F8453014
:103F10005BB2B3F1FF3F03D17B69002283F84520F8
:103F200001F08CFB7B699B6B002B06D17B692433F2
:103F30007A68B968184600F033FC7869FFF728FF03
:103F400000BF1837BD4680BD80B58EB004AFF860A5
:103F5000B9607A603B607B6B002B0BD14FF0500354
:103F600083F31188BFF36F8FBFF34F8F3B6200BFA6
:103F700000BFFDE7BB6B002B0BD14FF0500383F369
:103F80001188BFF36F8FBFF34F8FFB6100BF00BF7E
:103F9000FDE7A8233B613B69A82B0BD04FF05003F2
:103FA00083F31188BFF36F8FBFF34F8FBB6100BFE7
:103FB00000BFFDE73B69BB6B002B1ED07B6B002B6A
:103FC0001BD0BB6B7B627B6A7A6B1A637B6A0222B3
:103FD00083F8A520002303937B6A029307F114035F
:103FE00001933B6B00933B687A68B968F86800F00E
:103FF00051F8786A00F0F6F801E000237B617B69F4
:1040000018462837BD4680BD80B58CB004AFF86037
:10401000B9603B601346FB80FB889B00184601F0AB
:10402000DFFB78617B69002B0ED0A82001F0D8FB64
:10403000F861FB69002B03D0FB697A691A6305E01C
:10404000786901F09BFC01E00023FB61FB69002B18
:1040500017D0FB69002283F8A520FA880023039378
:10406000FB690293FB6A0193BB6A00933B68B968E2
:10407000F86800F00FF8F86900F0B4F80123BB61AC
:1040800002E04FF0FF33BB61BB6918462037BD46E5
:1040900080BD000080B588B000AFF860B9607A607C
:1040A0003B603B6B186B7B689B001A46A52101F0B7
:1040B000A5FD3B6B1A6B7B6803F18043013B9B00C2
:1040C0001344BB61BB6923F00703BB61BB6903F009
:1040D0000703002B0BD04FF0500383F31188BFF37D
:1040E0006F8FBFF34F8F7B6100BF00BFFDE7BB68E1
:1040F000002B1FD00023FB6112E0BA68FB69134458
:1041000019783A6BFB69134434330A461A70BA685B
:10411000FB6913441B78002B06D0FB690133FB615C
:10412000FB690F2BE9D900E000BF3B6B002283F84D
:10413000432003E03B6B002283F83420BB6A372B1B
:1041400001D93723BB623B6BBA6ADA623B6BBA6A4E
:10415000DA643B6B00221A653B6B04331846FFF7A9
:10416000ACF83B6B18331846FFF7A7F83B6B3A6B7C
:104170001A61BB6AC3F138023B6B9A613B6B3A6BC5
:104180005A623B6B0022C3F8A0203B6B002283F8ED
:10419000A4203B6B54334C220021184601F02EFD25
:1041A0003B6B0D4A9A653B6B0C4ADA653B6B0C4ADC
:1041B0001A663A68F968B86901F01EF902463B6B65
:1041C0001A60FB6A002B02D0FB6A3A6B1A6000BFD0
:1041D0002037BD4680BD00BF382F0020A02F002013
:1041E0000830002080B582B000AF786001F0F6F9A9
:1041F0002D4B1B6801332C4A13602C4B1B68002B82
:1042000009D12A4A7B681360274B1B68012B10D108
:1042100000F0F4FB0DE0264B1B68002B09D1234B6B
:104220001B68DA6A7B68DB6A9A4202D81F4A7B689D
:104230001360204B1B6801331E4A13601D4B1A6824
:104240007B685A647B68DA6A1B4B1B689A4203D905
:104250007B68DB6A184A13607B68DA6A13469B0046
:1042600013449B00154A1A447B68043319461046D0
:10427000FFF72FF801F0E2F90D4B1B68002B0ED071
:104280000A4B1B68DA6A7B68DB6A9A4207D20C4BDE
:104290004FF080521A60BFF34F8FBFF36F8F00BF94
:1042A0000837BD4680BD00BFB80D0020E4080020DF
:1042B000C40D0020D40D0020C00D0020E80800200F
:1042C00004ED00E080B58AB004AF0023BB6000239A
:1042D0007B603A46391D07F108031846FEF79CFF3C
:1042E00039687B68BA680292019300230093002327
:1042F0000A4624492448FFF727FE0346234A136051
:10430000224B1B68002B02D001237B6101E00023BC
:104310007B617B69012B02D100F016FD78617B691E
:10432000012B1BD14FF0500383F31188BFF36F8F24
:10433000BFF34F8F3B6100BF154B1B685433154AC9
:104340001360154B4FF0FF321A60144B01221A60B4
:10435000134B00221A6001F0CFF80FE07B69B3F134
:10436000FF3F0BD14FF0500383F31188BFF36F8FE2
:10437000BFF34F8FFB6000BF00BFFDE700BF1837E2
:10438000BD4680BD84670008CD490008DC0D0020D3
:10439000E408002014000020D80D0020C40D0020E7
:1043A000BC0D002080B400AF044B1B680133034AEE
:1043B000136000BFBD4680BC704700BFE00D002009
:1043C00080B584B000AF0023FB600023BB60424B8C
:1043D0001B68002B0BD14FF0500383F31188BFF300
:1043E0006F8FBFF34F8F3B6000BF00BFFDE701F051
:1043F000F5F8394B1B68013B374A1360364B1B6895
:10440000002B62D1354B1B68002B5ED02FE0344B64
:10441000DB68DB68FB60FB6818331846FEF7B4FF07
:10442000FB6804331846FEF7AFFFFB68DA6A2D4BD2
:104430001B689A4203D9FB68DB6A2A4A1360FB684F
:10444000DA6A13469B0013449B00274A1A44FB6810
:10445000043319461046FEF73CFFFB68DA6A234B2B
:104460001B68DB6A9A4202D3214B01221A601C4B63
:104470001B68002BCBD1FB68002B01D000F062FB46
:104480001C4B1B687B607B68002B10D000F044F84D
:104490000346002B02D0164B01221A607B68013BB9
:1044A0007B607B68002BF1D1124B00221A60104B0D
:1044B0001B68002B09D00123BB600F4B4FF08052CB
:1044C0001A60BFF34F8FBFF36F8F01F0B7F8BB686F
:1044D00018461037BD4680BDE00D0020B80D002005
:1044E000780D0020C00D0020E8080020E40800201E
:1044F000CC0D0020C80D002004ED00E080B483B096
:1045000000AF044B1B687B607B6818460C37BD46C8
:1045100080BC7047BC0D002080B586B000AF002382
:104520007B614F4B1B68002B40F090804D4B1B680C
:1045300001333B614B4A3B6913603B69002B21D13E
:10454000494B1B681B68002B0BD04FF0500383F3C3
:104550001188BFF36F8FBFF34F8F3B6000BF00BF69
:10456000FDE7414B1B68FB60404B1B683E4A1360F4
:104570003E4AFB6813603E4B1B6801333C4A1360A4
:1045800000F0E0FA3B4B1B683A699A4249D3364B3C
:104590001B681B68002B04D1364B4FF0FF321A60AA
:1045A0003FE0314B1B68DB68DB68BB60BB685B6866
:1045B0007B603A697B689A4203D22E4A7B6813601B
:1045C0002FE0BB6804331846FEF7DEFEBB689B6A2B
:1045D000002B04D0BB6818331846FEF7D5FEBB6825
:1045E000DA6A254B1B689A4203D9BB68DB6A224A08
:1045F0001360BB68DA6A13469B0013449B001F4A92
:104600001A44BB68043319461046FEF762FEBB68C5
:10461000DA6A1B4B1B68DB6A9A42B8D301237B61C1
:10462000B5E7174B1B68DA6A144913469B0013441D
:104630009B000B441B68012B01D901237B61114BAB
:104640001B68002B07D001237B6104E00E4B1B6825
:1046500001330D4A13607B6918461837BD4680BD8B
:10466000E00D0020BC0D0020700D0020740D002016
:10467000D00D0020D80D0020C00D0020E80800203B
:10468000E4080020CC0D0020C80D002080B485B0C7
:1046900000AF2A4B1B68002B03D0294B01221A6064
:1046A00047E0274B00221A60264B1B68FB6011E095
:1046B000FB68002B0BD14FF0500383F31188BFF33D
:1046C0006F8FBFF34F8F7B6000BF00BFFDE7FB68BC
:1046D000013BFB601C49FA6813469B0013449B0096
:1046E0000B441B68002BE3D0FA6813469B0013446D
:1046F0009B00154A1344BB60BB685B685A68BB6883
:104700005A60BB685A68BB6808339A4204D1BB68D8
:104710005B685A68BB685A60BB685B68DB680B4AB9
:104720001360084AFB681360084B1B685433084A3F
:10473000136000BF1437BD4680BC7047E00D0020F9
:10474000CC0D0020C00D0020E8080020E408002067
:104750001400002080B584B000AF786039607B68B9
:10476000002B0BD14FF0500383F31188BFF36F8FF1
:10477000BFF34F8FFB6000BF00BFFDE7074B1B6817
:10478000183319467868FEF7C7FD0121386800F034
:1047900087FA00BF1037BD4680BD00BFE408002087
:1047A00080B586B000AFF860B9607A60FB68002B16
:1047B0000BD14FF0500383F31188BFF36F8FBFF31A
:1047C0004F8F7B6100BF00BFFDE70A4B1B681833AA
:1047D0001946F868FEF77DFD7B68002B02D04FF08C
:1047E000FF33BB607968B86800F05AFA00BF183729
:1047F000BD4680BDE408002080B586B000AF78607B
:104800007B68DB68DB683B613B69002B0BD14FF0B9
:10481000500383F31188BFF36F8FBFF34F8FFB609B
:1048200000BF00BFFDE73B6918331846FEF7ACFD3B
:104830001D4B1B68002B1DD13B6904331846FEF746
:10484000A3FD3B69DA6A194B1B689A4203D93B699D
:10485000DB6A164A13603B69DA6A13469B0013440D
:104860009B00134A1A443B69043319461046FEF76D
:1048700030FD05E03B69183319460E48FEF729FD67
:104880003B69DA6A0C4B1B68DB6A9A4205D9012343
:104890007B610A4B01221A6001E000237B617B6986
:1048A00018461837BD4680BDE00D0020C00D002021
:1048B000E8080020780D0020E4080020CC0D00203E
:1048C00080B483B000AF7860064B1A687B681A60CA
:1048D000054B1A687B685A6000BF0C37BD4680BC28
:1048E000704700BFD00D0020BC0D002080B588B0FF
:1048F00000AF786039607B68002B0BD14FF050031C
:1049000083F31188BFF36F8FBFF34F8F3B6100BFFD
:1049100000BFFDE73B68002B0BD14FF0500383F342
:104920001188BFF36F8FBFF34F8FFB6000BF00BFD5
:10493000FDE700F053FE1D4B1B68BB617B685B68A5
:10494000BA69D31A7B613B681B68B3F1FF3F02D1A0
:104950000023FB6123E07B681A68154B1B689A42B1
:1049600007D07B685B68BA699A4202D30123FB6176
:1049700015E03B681B687A699A420BD23B681A685B
:104980007B69D21A3B681A607868FFF799FF0023A9
:10499000FB6104E03B6800221A600123FB6100F028
:1049A0004DFEFB6918462037BD4680BDBC0D00207A
:1049B000D00D002080B400AF034B01221A6000BF6D
:1049C000BD4680BC704700BFCC0D002080B582B0D2
:1049D00000AF786000F052F8064B1B68012BF9D944
:1049E000054B4FF080521A60BFF34F8FBFF36F8FAC
:1049F000F0E700BFE808002004ED00E080B582B0D9
:104A000000AF00237B600CE07A6813469B001344E0
:104A10009B00124A13441846FEF730FC7B680133B2
:104A20007B607B68372BEFD90D48FEF727FC0D48DC
:104A3000FEF724FC0C48FEF721FC0C48FEF71EFC98
:104A40000B48FEF71BFC0B4B054A1A600A4B054A44
:104A50001A6000BF0837BD4680BD00BFE8080020CF
:104A6000480D00205C0D0020780D00208C0D0020EA
:104A7000A40D0020700D0020740D002080B582B0C0
:104A800000AF19E000F0AAFD104BDB68DB687B602B
:104A90007B6804331846FEF777FC0D4B1B68013B1F
:104AA0000B4A13600B4B1B68013B0A4A136000F072
:104AB000C5FD786800F010F8064B1B68002BE1D1AB
:104AC00000BF00BF0837BD4680BD00BF8C0D002071
:104AD000B80D0020A00D002080B584B000AF786034
:104AE0007B685433184601F091F87B6893F8A53041
:104AF000002B08D17B681B6B184600F03FFF7868DD
:104B000000F03CFF19E07B6893F8A530012B03D13E
:104B1000786800F033FF10E07B6893F8A530022B33
:104B20000BD04FF0500383F31188BFF36F8FBFF3A7
:104B30004F8FFB6000BF00BFFDE700BF1037BD46D1
:104B400080BD000080B483B000AF0C4B1B681B68B5
:104B5000002B04D10A4B4FF0FF321A6008E0074BDC
:104B60001B68DB68DB687B607B685B68044A1360FA
:104B700000BF0C37BD4680BC704700BF700D0020E1
:104B8000D80D002080B483B000AF0B4B1B68002B06
:104B900002D101237B6008E0084B1B68002B02D187
:104BA00002237B6001E000237B607B6818460C37A2
:104BB000BD4680BC704700BFC40D0020E00D002042
:104BC00080B586B000AF78607B683B6100237B6175
:104BD0007B68002B58D02F4B1B683A699A420BD048
:104BE0004FF0500383F31188BFF36F8FBFF34F8FE4
:104BF000FB6000BF00BFFDE73B691B6D002B0BD1C5
:104C00004FF0500383F31188BFF36F8FBFF34F8FC3
:104C1000BB6000BF00BFFDE73B691B6D5A1E3B69CF
:104C20001A653B69DA6A3B69DB6C9A422CD03B69B6
:104C30001B6D002B28D13B6904331846FEF7A4FBFB
:104C40003B69DA6C3B69DA623B69DB6AC3F13802C3
:104C50003B699A613B69DA6A0F4B1B689A4203D938
:104C60003B69DB6A0C4A13603B69DA6A13469B00B6
:104C700013449B00094A1A443B6904331946104601
:104C8000FEF727FB01237B617B6918461837BD4679
:104C900080BD00BFE4080020C00D0020E80800200F
:104CA00080B584B000AF78603960214B1B68FB6031
:104CB000204B1B6804331846FEF766FB7B68B3F194
:104CC000FF3F0AD13B68002B07D01A4B1B68043307
:104CD00019461948FEF7FDFA26E0FA687B68134486
:104CE000BB60144B1B68BA685A60BA68FB689A428A
:104CF00009D2124B1A680F4B1B6804331946104631
:104D0000FEF70AFB10E00E4B1A680A4B1B680433CF
:104D100019461046FEF700FB0A4B1B68BA689A4218
:104D200002D2084ABB68136000BF1037BD4680BD81
:104D3000BC0D0020E4080020A40D0020740D00200C
:104D4000700D0020D80D002080B58AB004AF00237C
:104D50007B6100F011FB1D4B1B68002B21D0002351
:104D6000FB600023BB603A1D07F1080107F10C034B
:104D70001846FEF769FA7968BB68FA6802920193EF
:104D80000223009300230A4611491248FFF7DCF87A
:104D90000346114A1360104B1B68002B01D00123FE
:104DA0007B617B69002B0BD14FF0500383F311889B
:104DB000BFF36F8FBFF34F8F3B6100BF00BFFDE7B5
:104DC0007B6918461837BD4680BD00BF140E002011
:104DD0008C670008154F0008180E002080B58AB0B7
:104DE00000AFF860B9607A603B6000237B62FB68CB
:104DF000002B0BD14FF0500383F31188BFF36F8F5B
:104E0000BFF34F8F3B6200BF00BFFDE7194B1B682C
:104E1000002B2AD0BB683B617B687B61FB68BB6170
:104E2000BB68052B18DCFFF7ADFE0346022B09D14A
:104E3000104B186807F1100100233A6BFEF714FCC1
:104E4000786212E00B4B186807F110010023002272
:104E5000FEF70AFC786208E0064B186807F11001BB
:104E600000233A68FEF702FD78627B6A184628370D
:104E7000BD4680BD140E002080B588B002AF7860BA
:104E80003960234B1B68DB68DB687B617B6904331B
:104E90001846FEF779FA7B6993F8283003F004038B
:104EA000002B23D07B699A697B68D1187B683A68AC
:104EB000786900F0D3F80346002B20D0002300933C
:104EC00000237A6800217869FFF788FF38613B6921
:104ED000002B14D14FF0500383F31188BFF36F8F71
:104EE000BFF34F8FFB6000BF00BFFDE77B6993F806
:104EF000283023F00103DAB27B6983F828207B692C
:104F00001B6A7869984700BF1837BD4680BD00BF4F
:104F10000C0E002080B584B000AF786007F1080364
:104F2000184600F059F8F860BB681946F86800F0B8
:104F300005F800F0D5F800BFF0E7000080B584B0B8
:104F400000AF78603960FFF72DFA07F108031846C3
:104F500000F064F8F860BB68002B30D13B68002B90
:104F60000AD17A68FB689A4206D8FFF729FAF968ED
:104F70007868FFF781FF24E03B68002B08D0134BD3
:104F80001B681B68002B01D1012300E000233B605C
:104F90000F4B18687A68FB68D31A3A681946FEF70F
:104FA0009FFFFFF70DFA0346002B0AD1094B4FF084
:104FB00080521A60BFF34F8FBFF36F8F01E0FFF78E
:104FC000FFF900BF1037BD4680BD00BF100E0020A6
:104FD000140E002004ED00E080B485B000AF7860CE
:104FE0000D4B1B681B68002B01D1012200E0002241
:104FF0007B681A607B681B68002B05D1064B1B6819
:10500000DB681B68FB6001E00023FB60FB6818465F
:105010001437BD4680BC70470C0E002080B584B0AC
:1050200000AF7860FFF76AFAF8600B4B1B68FA680C
:105030009A4205D200F03AF97B6801221A6002E038
:105040007B6800221A60044AFB681360FB681846FC
:105050001037BD4680BD00BF1C0E002080B586B055
:1050600000AFF860B9607A603B6000237B61FB6849
:10507000BA685A60FB68FA681A61BA687B689A4233
:1050800012D87A683B68D21AFB689B699A4202D3AD
:1050900001237B611BE0104B1A68FB68043319463F
:1050A0001046FEF739F912E07A683B689A4206D258
:1050B000BA683B689A4202D301237B6107E0074B41
:1050C0001A68FB68043319461046FEF725F97B6918
:1050D00018461837BD4680BD100E00200C0E00206B
:1050E00080B58EB002AFCEE07B68002B19DA3B1D95
:1050F0000433FB62FB6A002B0BD14FF0500383F3A8
:105100001188BFF36F8FBFF34F8FFB6100BF00BFEC
:10511000FDE7FB6A1B68FA6A5068FA6A92681146F2
:1051200098477B68002BC0F2AE80FB68BB62BB6A0D
:105130005B69002B04D0BB6A04331846FEF724F9E0
:105140003B461846FFF76AFF78627B68092B00F23E
:10515000978001A252F823F0815100088151000884
:1051600081510008F75100080B52000857520008FF
:105170008151000881510008F75100080B520008C6
:10518000BB6A93F8283043F00103DAB2BB6A83F8B4
:105190002820BA68BB6A9B69D118BB687A6AB86A6A
:1051A000FFF75CFF0346002B6CD0BB6A1B6AB86A32
:1051B0009847BB6A93F8283003F00403002B61D0B2
:1051C000BA68BB6A9B691A4400230093002300213C
:1051D000B86AFFF703FE38623B6A002B52D14FF0EA
:1051E000500383F31188BFF36F8FBFF34F8FBB6101
:1051F00000BF00BFFDE7BB6A93F8283023F001032E
:10520000DAB2BB6A83F828203DE0BB6A93F8283005
:1052100043F00103DAB2BB6A83F82820BA68BB6A9C
:105220009A61BB6A9B69002B0BD14FF0500383F34B
:105230001188BFF36F8FBFF34F8F7B6100BF00BF3B
:10524000FDE7BB6A9A697B6AD1187B6A7A6AB86A99
:10525000FFF704FF17E0BB6A93F8283003F002035E
:10526000002B03D1B86A00F089FB0CE0BB6A93F80D
:10527000283023F00103DAB2BB6A83F8282002E069
:1052800000BF00E000BF084B1B68391D0022184614
:10529000FEF78AFB0346002B7FF426AF00BF00BF5A
:1052A0003037BD4680BD00BF140E002080B588B0E9
:1052B00002AF49E02E4B1B68DB681B683B612C4B3F
:1052C0001B68DB68DB68FB60FB6804331846FEF78D
:1052D0005BF8FB681B6AF8689847FB6893F828300E
:1052E00003F00403002B2FD0FB689B693A69134439
:1052F000BB60BA683B699A420ED9FB68BA685A60CB
:10530000FB68FA681A611A4B1A68FB68043319467D
:105310001046FEF701F817E00023009300233A69D6
:105320000021F868FFF75AFD78607B68002B0BD1ED
:105330004FF0500383F31188BFF36F8FBFF34F8F8C
:105340003B6000BF00BFFDE7094B1B681B68002BDB
:10535000B0D1074B1B687B61064B1B68044A136086
:10536000044A7B69136000BF1837BD4680BD00BF8B
:105370000C0E0020100E002080B582B002AF00F0AD
:105380002DF9154B1B68002B20D11448FDF776FF33
:105390001348FDF773FF134B104A1A60124B104A63
:1053A0001A6000230093114B114A10210A20FEF7C6
:1053B0007FF80346084A1360074B1B68002B05D093
:1053C000054B1B680B491846FEF762FD00F036F9E5
:1053D00000BFBD4680BD00BF140E0020E40D0020BC
:1053E000F80D00200C0E0020100E0020C00E002032
:1053F000200E00209467000880B485B000AFF860EC
:10540000B9607A60FB68043BFB60FB684FF0807218
:105410001A60FB68043BFB60BB6823F00102FB6879
:105420001A60FB68043BFB60084AFB681A60FB6873
:10543000143BFB607A68FB681A60FB68203BFB60EA
:10544000FB6818461437BD4680BC704751540008AD
:1054500080B485B000AF00237B60124B1B68B3F1B2
:10546000FF3F0BD04FF0500383F31188BFF36F8FD2
:10547000BFF34F8FFB6000BF00BFFDE74FF050034D
:1054800083F31188BFF36F8FBFF34F8FBB6000BFF3
:1054900000BF7B68002BFCD000BF00BF1437BD46A7
:1054A00080BC7047100000200000000000000000D9
:1054B000074B19680868B0E8F00F80F30988BFF35C
:1054C0006F8F4FF0000080F311884EF00D0E704783
:1054D000E408002000BF00BF06480068006880F3B1
:1054E000088862B661B6BFF34F8FBFF36F8F00DFDE
:1054F00000BF00BF08ED00E080B584B000AF324BC4
:10550000FB60FB681B78DBB27B60FB68FF221A70D4
:10551000FB681B78DBB2FB70FB78DBB203F0500357
:10552000DAB22A4B1A702A4B07221A6009E0284B7C
:105530001B68013B264A1360FB78DBB25B00DBB2E1
:10554000FB70FB78DBB203F08003802BEFD0204BA5
:105550001B68C3F10703042B0BD04FF0500383F3F8
:105560001188BFF36F8FBFF34F8FBB6000BF00BFC9
:10557000FDE7174B1B681B02154A1360144B1B6891
:1055800003F4E063124A13607B68DAB2FB681A70B6
:10559000104B1B680F4A43F4700313600D4B1B68DC
:1055A0000C4A43F07043136000F0B8F80A4B002235
:1055B0001A60FFF791FFFFF769F8FFF749FF002333
:1055C00018461037BD4680BD00E400E0100F0020F3
:1055D000140F002020ED00E01000002080B483B004
:1055E00000AF4FF0500383F31188BFF36F8FBFF309
:1055F0004F8F7B6000BF0F4B1B6801330D4A136058
:105600000C4B1B68012B10D10B4B1B68DBB2002B22
:105610000BD04FF0500383F31188BFF36F8FBFF3AC
:105620004F8F3B6000BF00BFFDE700BF0C37BD469A
:1056300080BC70471000002004ED00E080B483B00F
:1056400000AF124B1B68002B0BD14FF0500383F3BC
:105650001188BFF36F8FBFF34F8F7B6000BF00BF18
:10566000FDE70A4B1B68013B084A1360074B1B68A8
:10567000002B05D100233B603B6883F3118800BFFA
:1056800000BF0C37BD4680BC704700BF1000002033
:10569000EFF30980BFF36F8F0D4B1A6820E9F00F0D
:1056A000106008B54FF0500080F31188FEF7EEFF50
:1056B0004FF0000080F31188BDE8084019680868C1
:1056C000B0E8F00F80F30988BFF36F8F704700BF19
:1056D000E408002000BF00BF80B582B000AF4FF0EB
:1056E000500383F31188BFF36F8FBFF34F8F7B603D
:1056F00000BFFEF711FF0346002B03D0064B4FF00F
:1057000080521A6000233B603B6883F3118800BF1E
:1057100000BF0837BD4680BD04ED00E080B400AF97
:105720000A4B00221A600A4B00221A60094B1B68C0
:10573000094AA2FB03239B09084A013B1360034B60
:1057400007221A6000BFBD4680BC704710E000E031
:1057500018E000E004000020D34D621014E000E0E7
:1057600080B485B000AFEFF30583FB60FB680F2BBF
:1057700015D9174AFB6813441B78FB72154B1B782D
:10578000FA7A9A420BD24FF0500383F31188BFF399
:105790006F8FBFF34F8F7B6000BF00BFFDE70E4BE5
:1057A0001B6803F4E0620D4B1B689A420BD94FF063
:1057B000500383F31188BFF36F8FBFF34F8F3B60AC
:1057C00000BF00BFFDE700BF1437BD4680BC704777
:1057D000F0E300E0100F00200CED00E0140F0020BB
:1057E00080B58AB000AF78600023FB61FEF7DAFD78
:1057F0005C4B1B68002B01D100F024F95A4B1A684E
:105800007B681340002B40F095807B68002B1ED0F6
:1058100008227B6813447B607B6803F00703002B3E
:1058200015D07B6823F0070308337B607B6803F0A7
:105830000703002B0BD04FF0500383F31188BFF305
:105840006F8FBFF34F8F7B6100BF00BFFDE77B68A9
:10585000002B6FD0454B1B687A689A426AD8444B3C
:105860003B62434B1B687B6204E07B6A3B627B6A62
:105870001B687B627B6A5B687A689A4203D97B6AA1
:105880001B68002BF1D1374B1B687A6A9A4251D0C2
:105890003B6A1B6808221344FB617B6A1A683B6AF7
:1058A0001A607B6A5A687B68D21A08235B009A42A6
:1058B00020D97A6A7B681344BB61BB6903F0070394
:1058C000002B0BD04FF0500383F31188BFF36F8F81
:1058D000BFF34F8F3B6100BF00BFFDE77B6A5A6893
:1058E0007B68D21ABB695A607B6A7A685A60B86969
:1058F00000F00AF91D4B1A687B6A5B68D31A1B4AD1
:1059000013601A4B1A681B4B1B689A4203D2174B41
:105910001B68184A13607B6A5A68134B1B681A434A
:105920007B6A5A607B6A00221A60134B1B68013342
:10593000114A1360FEF744FDFB6903F00703002BD7
:105940000BD04FF0500383F31188BFF36F8FBFF379
:105950004F8FFB6000BF00BFFDE7FB69184628378B
:10596000BD4680BD202F0020342F0020242F002092
:10597000182F0020282F00202C2F002080B586B063
:1059800000AF78607B687B617B68002B4FD0082379
:105990005B427A6913447B617B693B613B695A686E
:1059A000254B1B681340002B0BD14FF0500383F3A2
:1059B0001188BFF36F8FBFF34F8FFB6000BF00BF35
:1059C000FDE73B691B68002B0BD04FF0500383F3BE
:1059D0001188BFF36F8FBFF34F8FBB6000BF00BF55
:1059E000FDE73B695A68144B1B681340002B1ED01F
:1059F0003B691B68002B1AD13B695A680E4B1B6828
:105A0000DB431A403B695A60FEF7CCFC3B695A689D
:105A10000A4B1B681344094A1360386900F074F894
:105A2000074B1B680133064A1360FEF7C9FC00BF31
:105A30001837BD4680BD00BF342F0020242F002022
:105A4000302F002080B485B000AF4FF40053BB600E
:105A5000274BFB60FB6803F00703002B0CD0FB68AF
:105A60000733FB60FB6823F00703FB60BA68FB6841
:105A7000D31A1F4A1344BB60FB687B601D4A7B68D6
:105A800013601C4B00225A607B68BA681344FB60A9
:105A90000822FB689B1AFB60FB6823F00703FB608E
:105AA000FB68154A1360144B1B6800225A60124BA6
:105AB0001B6800221A607B683B603B68FA68D21A58
:105AC0003B685A600C4B1A683B681A603B685B681D
:105AD0000A4A13603B685B68094A1360094B4FF040
